:020000040000fa
:080000000001040000000000f3
:020000040000fa
:04000800e001000013
:020000040000fa
:04000c00e00100000f
:020000040000fa
:04001000e00100000b
:020000040000fa
:04001400e001000007
:020000040000fa
:04001800e001000003
:020000040000fa
:04001c00e0010000ff
:020000040000fa
:04002000e0010000fb
:020000040000fa
:04002400e0010000f7
:020000040000fa
:04002800e0010000f3
:020000040000fa
:04002c00e0010000ef
:020000040000fa
:04003000e0010000eb
:020000040000fa
:04003400e0010000e7
:020000040000fa
:04003800e0010000e3
:020000040000fa
:04003c00e0010000df
:020000040000fa
:04004000e0010000db
:020000040000fa
:04004400e0010000d7
:020000040000fa
:04004800e0010000d3
:020000040000fa
:04004c00c8010000e7
:020000040000fa
:04005000e0010000cb
:020000040000fa
:04005400e0010000c7
:020000040000fa
:04005800e0010000c3
:020000040000fa
:04005c00e0010000bf
:020000040000fa
:04006000e0010000bb
:020000040000fa
:04006400e0010000b7
:020000040000fa
:04006800e0010000b3
:020000040000fa
:04006c00e0010000af
:020000040000fa
:04007000e0010000ab
:020000040000fa
:04007400e0010000a7
:020000040000fa
:04007800e0010000a3
:020000040000fa
:04007c00e00100009f
:020000040000fa
:04008000e00100009b
:020000040000fa
:04008400e001000097
:020000040000fa
:04008800e001000093
:020000040000fa
:04008c00e00100008f
:020000040000fa
:04009000e00100008b
:020000040000fa
:04009400e001000087
:020000040000fa
:04009800e001000083
:020000040000fa
:04009c00e00100007f
:020000040000fa
:0400a000e00100007b
:020000040000fa
:0400a400e001000077
:020000040000fa
:0400a800e001000073
:020000040000fa
:0400ac00e00100006f
:020000040000fa
:0400b000e00100006b
:020000040000fa
:0400b400e001000067
:020000040000fa
:0400b800e001000063
:020000040000fa
:0400bc00e00100005f
:020000040000fa
:0400c000e00100005b
:020000040000fa
:0400c400e001000057
:020000040000fa
:0400c800e001000053
:020000040000fa
:0400cc00e00100004f
:020000040000fa
:0400d000e00100004b
:020000040000fa
:0400d400e001000047
:020000040000fa
:0400d800e001000043
:020000040000fa
:04010800e001000012
:020000040000fa
:04010c00e00100000e
:020000040000fa
:04011000e00100000a
:020000040000fa
:04011400e001000006
:020000040000fa
:04011800e001000002
:020000040000fa
:04011c00e0010000fe
:020000040000fa
:04012000e0010000fa
:020000040000fa
:04012400e0010000f6
:020000040000fa
:04012800e0010000f2
:020000040000fa
:04012c00e0010000ee
:020000040000fa
:04013000e0010000ea
:020000040000fa
:04013400e0010000e6
:020000040000fa
:04013800e0010000e2
:020000040000fa
:04013c00e0010000de
:020000040000fa
:04014000e0010000da
:020000040000fa
:04014400e0010000d6
:020000040000fa
:04014800e0010000d2
:020000040000fa
:04014c00e0010000ce
:020000040000fa
:04015000e0010000ca
:020000040000fa
:04015400e0010000c6
:020000040000fa
:04015800e0010000c2
:020000040000fa
:04015c00e0010000be
:020000040000fa
:04016000e0010000ba
:020000040000fa
:04016400e0010000b6
:020000040000fa
:04016800e0010000b2
:020000040000fa
:04016c00e0010000ae
:020000040000fa
:04017000e0010000aa
:020000040000fa
:04017400e0010000a6
:020000040000fa
:04017800e0010000a2
:020000040000fa
:04017c00e00100009e
:020000040000fa
:04018000e00100009a
:020000040000fa
:04018400e001000096
:020000040000fa
:04018800e001000092
:020000040000fa
:04018c00e00100008e
:020000040000fa
:04019000e00100008a
:020000040000fa
:04019400e001000086
:020000040000fa
:04019800e001000082
:020000040000fa
:04019c00e00100007e
:020000040000fa
:0401a000e00100007a
:020000040000fa
:0401a400e001000076
:020000040000fa
:0401a800e001000072
:020000040000fa
:0401ac00e00100006e
:020000040000fa
:0401b000e00100006a
:020000040000fa
:0401b400e001000066
:020000040000fa
:0401b800e001000062
:020000040000fa
:0401bc00e00100005e
:020000040000fa
:0401c000e00100005a
:020000040000fa
:0401c400e001000056
:020000040000fa
:0401c800e001000052
:020000040000fa
:0401cc00e00100004e
:020000040000fa
:0401d000e00100004a
:020000040000fa
:0401d400e001000046
:020000040000fa
:0401d800e001000042
:020000040000fa
:10020000cf8020000eff20000e01880000000000bb
:10021000000020000000e000020032000001200089
:100220002002880014000700670007000000e000bb
:1002300003003a00802f2000010020000200370058
:100240000000200001002000810f7000010032003a
:1002500014000700000020000000e000020032004f
:100260000000020000000000b602020000000000d2
:100270000040da000000fe004440a9000000200019
:100280000000e0000300320000002000a001880010
:100290004440a800000006008a1f78008b1f7800e9
:1002a0000000060091018800800478000000eb0047
:1002b0001a003700e284440032a0b4009905ba0065
:1002c000e284440032a0b4009906ba00e2844400fb
:1002d00032a0b4000006eb00476fde00fd07b2005d
:1002e000636ce10003003a00ebff07000000eb0045
:1002f0000a003700606ce10004003a00005deb008a
:100300008b05e900fdff3e00040037006168e10055
:10031000010032000086eb000b00070019c7ba008d
:100320001905ba000e04e00003003a000a00e000dc
:10033000e0ff3a0000000600fe07b2009e018800c0
:100340008a047800f5ff3700395dba008b05e900b3
:100350000c003200295dba008b05e900080032006c
:100360000c00e00003003a00e284440032a0b40034
:10037000f5ff370019ddba008b05e900faff3a00f6
:100380008904e800e184440032a0b40000000600c3
:10039000801f78003400f80000002000a0018800d1
:1003a0000200fa008520a90090108000004f78001c
:1003b0000080fa003400f9004f0078000040060089
:0c03c0000040da000000fe000000050014
:020000040000fa
:1003cc000000fa008c60a90005e1a9008460a90076
:1003dc000080fa00000006000200fa00000f78000e
:1003ec008460a9001e00780000407800674060001f
:1003fc0067406000674060000080fb0067006000a1
:10040c004c00dd00a2048000f1ff28008100610097
:10041c0001007000a00488009e00780068806000d5
:10042c004300de0000407800614060000080fb006b
:10043c00610060004300dd006204800071ff2f004a
:10044c008100610001007000600488000080fa00e7
:10045c00000006000400fa00000f78001107980055
:10046c000021ef009e009000110888009e0078008b
:10047c00210888000080fa00000006000000fa0045
:10048c00000880000080fa00000006000200fa005c
:10049c00000f78009e007800010888000080fa00a8
:1004ac00000006000000fa0000042000a0108800e4
:1004bc000d42a8008d20a80071108000c0ff2f00f5
:1004cc0000806000701088000de2a8000f42a800a8
:1004dc000080fa00000006000200fa00000f78000d
:1004ec0000000000711080000010200000806000ef
:1004fc000000e000fbff320060108000660060002e
:10050c00e60f500003003a009e007800811088002e
:10051c0003003700f00f20001e00600080108800e0
:10052c000080fa00000006000000fa00881f780026
:10053c000004780004003700184078000000fb002d
:10054c00e5ff07000804e800184078000004e0000c
:10055c00f9ff3a004f0478000080fa000000060012
:10056c000c00fa004007980051079800cdff0700d7
:10057c0010142000000f7800e0942400e1142400f3
:10058c0010079800210798000040eb006047980086
:10059c000e80e800e4ff07000228ef000c00370093
:1005ac000428ef0003003700204080000000e80022
:1005bc002040880021408000703e2000808f500039
:1005cc00f9ff3600104080000000e8001040880061
:1005dc001140800070bb2000808f5000f0ff36006f
:0405ec00e3ff3700f2
:020000040000fa
:1005f000000800000a000000000000000a080000d7
:1006000002000000020000003600000000000000b0
:020000040000fa
:0200000401f009
:04000000e0b9000063
:020000040000fa
:0200000401f009
:04000400ff7f00007a
:00000001FF
